:020000040000FA
:020000001F28B7
:040002000034003492
:08000800AB00030EAA000C1F5F
:100010000D280C131E08A2009F142A0E8300AB0E9D
:100020002B0E8B1709008207773441343B346B3435
:0E0030004D346E347E3443347F346F34080018
:02003E000317A6
:1000400083168801890109140915031306308600F7
:10005000850188019F139F121F128B170B170C1716
:100060008312850186018801A201A801A701AC01C4
:1000700061309F000C137D209F1447204E20693073
:100080009F000C137D209F1447204E203F282208FC
:100090000F39A700220E0F39A800080085012C088F
:1000A000820757285C28612866286B287028280852
:1000B000132088000514752827081320880085144C
:1000C000752828081320880005157528270813208F
:1000D00088008515752828081320880005167528BE
:1000E0002708132088008516752877200800AC0A99
:1000F00006302C020319AC0108001930A000A00B37
:040100007F2808004C
:02400E00D420BC
:02401000FF3F70
:00000001FF
