:020000040000FA
:02000000612875
:040002000034003492
:08000800B700030EB6000B1D4A
:100010000D280C1F12288C1E1E2806308100392046
:10002000B50A27281F1919280C131E08A6001F152A
:1000300021280C131E08AA001F1121281A08A2004B
:100040002728000000000000000000009F14360E6A
:100050008300B70E370E8B170900820777344134BF
:100060003B346B344D346E347E3443347F346F34E0
:100070000800850135088207432848284D28522862
:1000800057285C28B50131082D2088000514080088
:1000900032082D2088008514080033082D208800A0
:1000A000051508002E082D208800851508002F084A
:1000B0002D2088000516080030082D2088008516A0
:0200C000080036
:0E00C200031783168801890109140915031319
:1000D00006308600850188019F139F121F12990028
:1000E0001815181298161813813081008B170B17EA
:1000F0008B160C1761309F0083129817181618136F
:10010000850186018801B501A001A101A201A30119
:10011000A401A501A601A701A801A901AA01AB019B
:10012000AC01AD01AE01AF01B001B101B201B3014B
:10013000B4012608A200AD202508A9002408A800C3
:100140002308A7002A08A200AD202508AD00240836
:10015000AC002308AB00C5209928A301A401A50188
:1001600064302202031CB728A50AA200B0280A3076
:100170002202031CBE28A40AA200B72801302202D2
:10018000031C0800A30AA200BE280C1E08003408A5
:100190008207D128D328D528D728D928DB28DD28DD
:1001A000DF282908E1282808E1282708E1282C3041
:1001B000E2282D08E1282C08E1282B08E1280A3044
:0A01C000E228303E9A00B40A08005D
:02400E00D420BC
:02401000FF3F70
:00000001FF
