:020000040000FA
:020000001F28B7
:040002000034003492
:08000800AB00030EAA000C1F5F
:100010000D280C131E08A2009F142A0E8300AB0E9D
:100020002B0E8B1709008207773441343B346B3435
:0E0030004D346E347E3443347F346F34080018
:02003E000317A6
:1000400083168801890109140915031306308600F7
:10005000850188019F139F121F128B170B170C1716
:100060008312850186018801A201A801A701AC01C4
:1000700073309F000C1376209F14402047203D28AA
:1000800022080F39A700220E0F39A80008008501A9
:100090002C088207502855285A285F286428692888
:1000A00028081320880005146E28270813208800CC
:1000B00085146E2828081320880005156E28270847
:1000C0001320880085156E2828081320880005163F
:1000D0006E2827081320880085166E2870200800D7
:1000E000AC0A06302C020319AC0108001930A0003C
:0600F000A00B78280800B7
:02400E00D420BC
:02401000FF3F70
:00000001FF
