:020000040000FA
:02000000942842
:040002000034003492
:08000800B700030EB6000B194E
:100010000E280C1B42288C1A142854280B11063069
:1000200081006C20B50A54281A08BB002C3C031D23
:1000300021283808B2003908B1003A08B000BC01E4
:10004000542800303B02031D2D283808AF00390822
:10005000AE003A08AD00BC0154283C0882073328A2
:1000600038283D28BC0130303B02B800BC0A542877
:1000700030303B02B900BC0A542830303B02BA0091
:10008000BC0A54281F1949280C131E08A8001F1564
:100090004E280C131E08A4001F114E28000000005B
:1000A0000000000000009F14360E8300B70E370ECC
:1000B0008B1709000F398207773441343B346B3496
:1000C0004D346E347E3443347F346F340034003426
:1000D0000034003400340034850135088207762866
:1000E0007B28802885288A288F28B50130085A2047
:1000F00088000514080031085A208800851408007B
:1001000032085A208800051508002D085A2088005A
:10011000851508002E085A208800051608002F08AB
:080120005A2088008516080032
:08012800031783168801890109
:10013000091589150313FF308600850188019F1377
:100140009F121F12193099001815181298161813BB
:10015000813081008B170B178B160C178C168312AE
:1001600069309F00981718161813850186018801B9
:10017000B501A001A101A201A301A401A501A6014D
:10018000A701A801A901AA01AB01AD01AE01AF0110
:10019000B001B101B201AC01B401B801B901BA01B9
:1001A000BB01BC019F142808A00008212308AB0054
:1001B0002208AA002108A9002408A0000821230879
:1001C000A7002208A6002108A500E720D3280C1EBE
:1001D00008002C088207F428F628F828FA28FC28BA
:1001E000FE2800290229AC01270804292608042931
:1001F000250804292C3005292B0804292A0804295C
:10020000290804290A300529303E9900AC0A080063
:10021000A101A201A30164302002031C1229A30A38
:10022000A0000B290A302002031C1929A20AA000F1
:10023000122901302002031C0800A10AA00019297C
:02400E00D420BC
:02401000FF3F70
:00000001FF
