:020000040000FA
:020000001F28B7
:040002000034003492
:08000800AB00030EAA000C1F5F
:100010000D280C131E08A2009F142A0E8300AB0E9D
:100020002B0E8B1709008207773441343B346B3435
:0E0030004D346E347E3443347F346F34080018
:02003E000317A6
:1000400083168801890109140915031306308600F7
:10005000850188019F139F121F128B170B178312A4
:10006000850186018801A201A801A701AC01A901AF
:1000700061309F007F209F149F183C281E08A2001B
:1000800050205720291469309F000C137F209F14A3
:100090009F1848281E08A200502057207920372892
:1000A00022080F39A700220E0F39A8000800850189
:1000B0002C0882075D2866286F28280813208800EE
:1000C000291864280514782885157828270813200E
:1000D000880029186D28851478280516782828089E
:1000E0001320880029187628051578288516782881
:1000F0000800AC0A03302C020319AC0108001930C7
:08010000A000A00B81280800FB
:02400E00D420BC
:02401000FF3F70
:00000001FF
